:080000002004040000000000D0
:04003400CE030000F7
:0400AC002C02000022
:10040000851F7800830020006810E100070032009B
:10041000930020007010E10004003200A3002000CF
:100420007810E10001003200B30020006002AE004D
:10043000FEFF370068C2BF008051780060C2A9008B
:100440008240B100F9FF3E0004007800850078008A
:10045000CF027800000006004200F8003600F800E5
:100460003200F800801F7800200020000C000900F6
:10047000B01F78006768EC0067C8BF000160EF003C
:100480001080B200030032003080B2001C00320045
:1004900037003700020220000002020000000000C6
:1004A0007CA8B700F14388008002EB0000F02F0029
:1004B0007E08B600000378000DC0BF0080E8B700DA
:1004C0008002EB00F6438000F60FB2000640780091
:1004D00081E8B70000F02F007C08B60080027800A9
:1004E0000003EB000BC0BF0082E8B700E4438000CC
:1004F0000440780083E8B700B80204000000000060
:1005000002022000000202000000000078A8B700EC
:10051000D14388008002EB0000F02F007A08B6007B
:10052000000378000DC0BF0084E8B7008002EB0034
:10053000D6438000F60FB2000640780085E8B70089
:1005400000F02F007808B600800278000003EB006E
:100550000BC0BF0086E8B700C443800004407800A9
:1005600087E8B7006768EF00B802040000000000E9
:100570008820A900A00120000C0009004F1078007D
:100580004F0078003200F9003600F9004200F9000F
:1005900000400600851F7800861F7800E1082000D3
:1005A0000000E0001200320000F0A7000400370055
:1005B0004200A9000080D2008100E900FAFF370064
:1005C0000180FD004200A9008180D30000F0A1005D
:1005D0000080FD00814068000040B2000700370045
:1005E000014078000170A0000140B2000300370014
:1005F0000000EB008000EB00000037004F037800A4
:10060000CF02780000000600851F7800C50020009A
:1006100004000900B51F78008004EB0083846800A3
:1006200001037800800278000304780082037800D8
:100630008180D2000180FD008180FB000100E0008C
:100640004E0032008381D2000380FD008381FB00D5
:100650000300E000490032000000EB0003C050003E
:1006600003003900F047B0004400310003003700B8
:100670001048B10041003900400032008500780088
:10068000060178000270A000F20FB200F80FB2006D
:100690000870A0009A0120008001EB000002EB002E
:1006A0008780500008015900020033000400310027
:1006B00004003A008780400008014900010037002B
:1006C0000400A0000A05E900070032004200A9006A
:1006D0008180D2000281D2004200A9000482D200AF
:1006E0008381D200EEFF37000005EB000380A700F6
:1006F00001003700060037004200A9008381D300C3
:100700000370A1000482D3000A85D20002003700E2
:100710000000E900190032000AF0A70005003900C6
:100720008180D2000281D2008780500008015900E8
:10073000090039000402E80007003A008301E800DC
:1007400005003A000000E8000C003200020037000B
:100750000000E900090032000080FD008080D30025
:1007600001F0A00009F0A60001F0A1000370A100B3
:1007700081C06900040078000300370000002000F9
:10078000010020000000370045012000040009009E
:10079000CF127800CF027800000006004200F80077
:1007A0003600F8003200F800801F7800200020009A
:1007B0000C000900B01F78002003A9002023A80026
:1007C0002003AE00FEFF37000003F8005C08F900CC
:1007D0002003A9002023A8002003AE00FEFF37005D
:1007E0000083BF00CA0202000000000080027800FF
:1007F00001037800050078008600780002002F00D1
:10080000F3572400040302000000000068A8B700AA
:100810005143880010C0B30066E8B7008460A900A7
:10082000A00120000C0009004F1078004F00780054
:100830003200F9003600F9004200F90000400600DD
:100840000FF72300F0FF230020A0B70000000000F6
:10085000404426002005880040472400A005880069
:1008600081E0A8005A68EF0061E2A900E502A90052
:10087000E4E2A800E522A800E4C2A80060C2A90042
:100880006322A9006822EF00F419210014138800E4
:1008900061E2A800E522A900E922A8005C28EF0097
:1008A0005E28EF006028EF00440120001443880018
:1008B0006428EF0080C1B3005BE8B7006768EF0011
:1008C0006828EF006A28EF006C28EF006E28EF0020
:1008D0007028EF007228EF007428EF007628EF00F0
:1008E0007828EF007A28EF007C28EF007E28EF00C0
:1008F0008068EF008168EF008268EF008368EF0096
:100900008468EF008568EF008668EF008768EF0075
:1009100040C1B30088E8B7002CA3EF002AA3EF0082
:100920001021EF00740220006408880004002800F1
:100930008408880064002000840C8800A4FF2F0035
:10094000641988002AA3EF002223EF0004F0290095
:1009500024198800044E280004198800240020006F
:10096000441988000421EF0004352C001408880085
:1009700004012800240888009460A8009820A8009A
:1009800081E0A9004220EF0081E0A8000021EF00F3
:100990006648E200050032007008F8007408F900AB
:1009A0007208F8007608F9008C21EF00C8040400F2
:0809B00000000000FFFF37000A
:0200000401F009
:10000000CF0000FFCF0000FF070000FF820000FFCD
:10001000C20000FF5F0000FFE00000FF430000FFA0
:00000001FF
;DSPIC33FJ256GP510
;CRC=D537  CREATED="29-Sep-17 11:06"
