:08000000CA0704000000000023
:04003400A006000022
:0400AC002C02000022
:10040000851F7800830020006810E100070032009B
:10041000930020007010E10004003200A3002000CF
:100420007810E10001003200B30020006002AE004D
:10043000FEFF370068C2BF008051780060C2A9008B
:100440008240B100F9FF3E0004007800850078008A
:10045000CF027800000006004200F8003600F800E5
:100460003200F800801F7800200020000C000900F6
:10047000B01F78008820A90082002000000202003E
:100480000000000033E8B7003268EC0032C8BF005B
:100490000000FB001080B200070032003080B20084
:1004A000210032001080B200390032007080B200AA
:1004B0004A0032005D00370038C8BF0000E8B700CE
:1004C00000C8BF0068E2B70010C0B30000E8B70082
:1004D00035C8BF000000FB006100E10007003A00E2
:1004E0000068EF0000C8BF0068E2B70010C0B300AA
:1004F00000E8B700900204000000000035C8BF000B
:100500000000FB006200E10005003A000068EF0017
:1005100000C8BF0068E2B70010C0B30000E8B70031
:100520001C0304000000000033C8BF0035E8B7001A
:1005300035C8BF000000FB006100E10008003A0080
:100540003DC8BF0000E8B70000C8BF0068E2B700C0
:1005500010C0B30000E8B700C402040000000000AF
:1005600035C8BF000000FB006300E10006003A0050
:1005700036C8BF0000E8B70000C8BF0068E2B70097
:1005800010C0B30000E8B7001C0304000000000026
:1005900035C8BF000000FB006100E10004003A0024
:1005A00033C8BF003AE8B700EA02040000000000C8
:1005B00035C8BF000000FB006300E10005003A0001
:1005C0000068EF0000C8BF0068E2B70010C0B300C9
:1005D00000E8B7001C030400000000003268EF00D0
:1005E00035C8BF000000FB006100E10004003A00D4
:1005F00033C8BF0039E8B700120304000000000050
:1006000035C8BF000000FB006300E10005003A00B0
:100610000068EF0000C8BF0068E2B70010C0B30078
:1006200000E8B7001C030400000000003268EF007F
:100630001C030400000000008820A900A001200085
:100640000C0009004F1078004F0078003200F900CC
:100650003600F9004200F90000400600851F7800CE
:10066000861F7800E10820000000E0001200320040
:1006700000F0A700040037004200A9000080D2006B
:100680008100E900FAFF37000180FD004200A90067
:100690008180D30000F0A1000080FD00814068004F
:1006A0000040B20007003700014078000170A00050
:1006B0000140B200030037000000EB008000EB00B7
:1006C000000037004F037800CF02780000000600DA
:1006D000851F7800C500200004000900B51F7800C0
:1006E000000278008102780083037800020378001A
:1006F0004200A9004220A9008180D2000180FD00B3
:10070000F10FB2000100E0004B0032004200A900EE
:100710004220A9008381D2000380FD00F30FB200C4
:100720000300E000440032000080FB0001C04100F3
:1007300004003100F007B1003F0032003E003900F4
:10074000020037001048B0003B00310007856A0006
:100750004200A9004220A900F50FB2000570A000D8
:100760004200A900F70FB2000770A0000621B800F0
:10077000062CB80083014C00890078004200AF00CD
:100780008100E8004200A900043CB80083014C004D
:1007900081804C00072CB80081004C000000E8006C
:1007A0000100E0004220AF000100370003003700E5
:1007B0000300E0004220AF000500370001F0A70071
:1007C000030037008381D2008180D2000000E9005D
:1007D000010178004200A9000370A600090037005B
:1007E00007F02F00878161000310B000600149000D
:1007F0000200E00003003A000300E00001003A00BC
:100800000000E8000080FD004200A9004220A9008D
:100810008080D3000AF0A70001F0A00002F0A10040
:100820000280FD00814069000380FD0003417800E3
:1008300002007800030037000000200001002000C3
:10084000000037004501200004000900CF127800A5
:10085000CF02780000000600851F7800C500200048
:1008600003000900B51F78008004EB000800280091
:100870004300AF0083016C000000E00003003A0079
:10088000FAFF27000A8560004220AE0001057800CB
:100890008A856900010378008303780003067800E5
:1008A0004220A9004200A9000683D2000680FD0074
:1008B000F60FB2000600E000A10032004220A900BD
:1008C0004200A9008783D2000780FD00F70FB20025
:1008D0000700E0009F0032004220A9004200A9006A
:1008E0000638E1009C003200A30033000900A1009B
:1008F0000910A0000684530007037800F10FB2002E
:100900000170A000F30FB2000370A0008702200066
:100910000838E100110033004220A9004200A9007C
:100920008180D3000080D3000804E900FAFF3A0078
:100930000D003700870220000838E100090033006D
:100940004220A9004200A9008381D3000281D30084
:100950000804E900FAFF3A000F00370002007800AF
:1009600083007800430037000BF0A6001100370029
:100970000940A7008C0578000000EA000200320060
:1009800081C0EA00010037008100EA000940A700A9
:100990002B003700070037000BF0A60005003700DA
:1009A0000201EA000200320083C1EA0001003700C0
:1009B0008301EA00F50FB2004220A9004200A9001D
:1009C0000200400083C048004200AF000930A00090
:1009D0000900A700090037000910A700010037002F
:1009E0000B0037000BF0A700150037000930A700F7
:1009F000290037000960A0001E0037000BF0A70097
:100A00000F0037000930A700230037001900370016
:100A10000920A1000BF0A700040037008A05780028
:100A20000930A7001C003700360037000940A0003D
:100A300001C8B2000170A700CDFF37008A05780019
:100A4000F10FB200810370000A0032000170A700AC
:100A5000080037004220A9004200A9000080D2000F
:100A60008180D2000603E9004220AF003100370048
:100A7000F6FF37000900A7008A0578000910A700D3
:100A80008C0578000950A6001A0037000AF0A7006C
:100A90000080A0001B0037004200A80081C0D300E6
:100AA0000080D3004200AF000950A0000603E80018
:100AB000200032000950A600080037000000E800BE
:100AC00006003A008140E80004003A0081C0D300EB
:100AD0000080D3000603E800160032000900A700DA
:100AE0008A0578000910A7008C0578004220AF0025
:100AF000100037000960A7008A0578000970A70078
:100B00008C05780001017000230032000170A10003
:100B10000680FD004220A9004200A9000683D30000
:100B200081006B0001F0A0000BF0A60001F0A10015
:100B300019003700000020000100200016003700D7
:100B40000AF0A70083016C0002007800830078009F
:100B50001100370010003700F30FB2000370A0003F
:100B6000F10FB2000170A0000BF0A7000370A1000C
:100B70000920A00088FF370007045300F10FB200DE
:100B80000170A000F30FB2000370A0000910A100D3
:100B90000900A00067FF37002501200003000900BD
:100BA000CF127800CF02780000000600851F780081
:100BB000C500200004000900B51F78008004EB0088
:100BC00083846800010378008002780003047800C1
:100BD000820378008180D2000180FD008180FB00CB
:100BE0000100E0004E0032008381D2000380FD004E
:100BF0008381FB000300E000490032000000EB00AD
:100C000003C0500003003900F047B0004400310039
:100C1000030037001048B1004100390040003200A5
:100C200085007800060178000270A000F20FB20083
:100C3000F80FB2000870A0009A0120008001EB00BC
:100C40000002EB00878050000801590002003300C9
:100C50000400310004003A00878040000801490088
:100C6000010037000400A0000A05E9000700320077
:100C70004200A9008180D2000281D2004200A90076
:100C80000482D2008381D200EEFF37000005EB0022
:100C90000380A70001003700060037004200A900CA
:100CA0008381D3000370A1000482D3000A85D2009F
:100CB000020037000000E900190032000AF0A70026
:100CC000050039008180D2000281D2008780500067
:100CD00008015900090039000402E80007003A0041
:100CE0008301E80005003A000000E8000C00320033
:100CF000020037000000E900090032000080FD001A
:100D00008080D30001F0A00009F0A60001F0A1004E
:100D10000370A10081C0690004007800030037005F
:100D200000002000010020000000370045012000E5
:100D300004000900CF127800CF02780000000600FE
:100D400000A0FE002003A9002023A8002003AE007D
:100D5000FEFF37000083BF002E03020000000000EA
:100D60008002780001037800050078008600780092
:100D70001240800023408000680302000000000051
:100D800080027800010378004300A9000500780084
:100D90008600780002002000031424002C040200C6
:100DA000000000000EA8B700814088004300A800A2
:100DB0000A88BF006140800072408000834080004C
:100DC0002C0402000000000012A8B700A140880017
:100DD0001288BF00A1408000D2408000E340800024
:100DE00068030200000000004300A9000001780031
:100DF000810178002A88BF00614180002C04020034
:100E0000000000002AA8B700614188004300A80044
:100E10001288BF00A1408000B2408000C340800023
:100E20002C0402000000000080027800010378001A
:100E30000500780086007800D2408000E340800002
:100E4000D6050200000000002EA8B70081418800EE
:100E50001208F8001608F9001408F8001808F9003C
:100E60008460A9000080FE000040060000017800B8
:100E700081017800014078000080FD0000F0A000B2
:100E80008180D2000180FD008180FB00E408200009
:100E900081405200060032000000E00004003200F1
:100EA0004200A9000080D3008100E900FAFF3A0067
:100EB00003F0A600020037000000EA00000037003F
:100EC00000000600851F7800861F7800871F7800C5
:100ED0000382680004F0A600060037004200A90063
:100EE0004220A90001F0A600260037004200A80019
:100EF00024003700010278008002780003037800A4
:100F0000820378008180D2000180FD008381D200BD
:100F10000380FD0081C051000500320004F0A600EE
:100F2000180037001000200042E0B600150037001E
:100F300084407800864178000170A1000370A10010
:100F400081C051000500320004F0A6000D003700FA
:100F50001000200042E0B6000A00370085805300F0
:100F60000500320004F0A600060037001000200043
:100F700042E0B600030037004200A900010037003C
:100F800000003700CF0378004F037800CF027800CD
:100F9000000006000FF82300F0FF230020A0B70098
:100FA00000000000404424002005880081E0A800E3
:100FB00074012000343A880034002000243A88006C
:100FC0000E00FC0030102000317420008207200049
:100FD000A3092000824878008348780043E7B700DF
:100FE0004800DE0021742000620420007305200008
:100FF0008248780083487800804878000068EF00D5
:1010000061E2A900E502A900E4E2A800E522A80047
:10101000E4C2A80060C2A9006322A9006822EF0010
:10102000740921001413880061E2A800E522A900D8
:10103000E922A8000228EF0054E22300244088009F
:101040000628EF000828EF000E28EF001028EF0018
:101050001228EF001428EF00D4CC2C00D4408800D4
:10106000C4DC2300E44088001E28EF00040A2400AA
:1010700004418800D4CC2C0014418800C4DC230037
:1010800024418800D4CC2C0034418800C4DC2300E7
:10109000444188002A28EF002C28EF002E28EF007A
:1010A0003028EF000168EF003268EF0020C0B30085
:1010B00036E8B7003768EF0070C0B30038E8B70013
:1010C0003968EF003A68EF004228EF002CA3EF00E8
:1010D0002AA3EF00E522A800E4FF2F00641988008E
:1010E0002AA3EF002223EF0004F02900241988002E
:1010F000044E2800041988002823EF000421EF0083
:1011000044C524001408880004032800240888002B
:101110001021EF00441F200064088800040228000A
:101120008408880064002000540C88008621EF00A9
:101130009820A80081E0A9004220EF0081E0A800EB
:101140000E88BF00814080003607020000000000CA
:101150003DE8B7003A48E2001D0032004200F800C6
:1011600081E0A90042E0EF0081E0A80039C8BF009B
:101170000160EF002E0302000000000081E0A900E2
:101180004200F90081E0A8008002780001037800A5
:101190004300A9004200F80081E0A90042E0EF000E
:1011A00081E0A80005007800860078000200200099
:1011B000033824002C0402000000000081E0A90094
:1011C0004200F90081E0A8000AA8B7006140880049
:1011D0004200F80081E0A90042E0EF0081E0A800B1
:1011E00039C8BF000160EF002E03020000000000BC
:1011F00081E0A9004200F90081E0A8000AA8B70038
:10120000614088004200F80081E0A90042E0EF0060
:1012100081E0A8001E88BF0001418000924080004C
:10122000A3408000680302000000000081E0A900E4
:101230004200F90081E0A8008002780001037800F4
:101240004200F80081E0A90042E0EF0081E0A80040
:101250002288BF002141800052418000634180000C
:10126000680302000000000081E0A9004200F900CC
:1012700081E0A8004300A9004200F80081E0A90035
:1012800042E0EF0081E0A8000001780081017800D1
:1012900005007800860078002C04020000000000A1
:1012A00081E0A9004200F90081E0A80006A8B7008B
:1012B0004140880000002000A13F2400324080000F
:1012C0004340800062070200000000000500390072
:1012D0000628EF00A43F240044408800960904003B
:1012E000000000000688BF0041408000020020008E
:1012F0000300200062070200000000000400390023
:101300000628EF000828EF009609040000000000FE
:101310000688BF0041408000360702000000000040
:1013200040A8B7004008F8008601F900A0080400B2
:08133000000000000040FE0077
:0200000401F009
:10000000CF0000FFCF0000FF070000FF800000FFCF
:10001000420000FF5F0000FFE70000FFC30000FF99
:00000001FF
;DSPIC33FJ256GP510
;CRC=AFF8  CREATED="20-Feb-18 13:58"
