:080000003607040000000000B7
:0400AC002C02000022
:10040000851F7800830020006810E100070032009B
:10041000930020007010E10004003200A3002000CF
:100420007810E10001003200B30020006002AE004D
:10043000FEFF370068C2BF008051780060C2A9008B
:100440008240B100F9FF3E0004007800850078008A
:10045000CF027800000006004200F8003600F800E5
:100460003200F800801F7800200020000C000900F6
:10047000B01F78008200200000020200000000008F
:100480000BE8B7000A68EC000AC8BF000000FB00D8
:100490001080B200070032003080B200210032002C
:1004A0001080B200390032007080B2004D0032007E
:1004B0006000370010C8BF0000E8B70000C8BF00E8
:1004C00068E2B70010C0B30000E8B7000DC8BF0075
:1004D0000000FB006100E10007003A000068EF0047
:1004E00000C8BF0068E2B70010C0B30000E8B70062
:1004F0008E020400000000000DC8BF000000FB00D9
:100500006200E10005003A000068EF0000C8BF008B
:1005100068E2B70010C0B30000E8B7002003040091
:10052000000000000BC8BF000DE8B7000DC8BF00F9
:100530000000FB006100E10008003A0014C8BF00A1
:1005400000E8B70000C8BF0068E2B70010C0B30001
:1005500000E8B700C2020400000000000DC8BF00A0
:100560000000FB006300E10006003A000EC8BF0077
:1005700000E8B70000C8BF0068E2B70010C0B300D1
:1005800000E8B70020030400000000000DC8BF0011
:100590000000FB006100E10007003A000068EF0086
:1005A00000C8BF0068E2B70010C0B30000E8B700A1
:1005B000EE020400000000000DC8BF000000FB00B8
:1005C0006300E10005003A000068EF0000C8BF00CA
:1005D00068E2B70010C0B30000E8B70020030400D1
:1005E000000000000A68EF000DC8BF000000FB001B
:1005F0006100E10004003A000BC8BF0011E8B70039
:1006000016030400000000000DC8BF000000FB003E
:100610006300E10005003A000068EF0000C8BF0079
:1006200068E2B70010C0B30000E8B7002003040080
:10063000000000000A68EF00200304000000000032
:100640008820A900A00120000C0009004F107800AC
:100650004F0078003200F9003600F9004200F9003E
:1006600000400600851F7800C50020000400090036
:10067000B51F7800000278008102780083037800BB
:10068000020378004200A9004220A9008180D20024
:100690000180FD00F10FB2000100E0004B003200CC
:1006A0004200A9004220A9008381D2000380FD00FE
:1006B000F30FB2000300E000440032000080FB00B2
:1006C00001C0410004003100F007B1003F003200DA
:1006D0003E003900020037001048B0003B003100F6
:1006E00007856A004200A9004220A900F50FB20068
:1006F0000570A0004200A900F70FB2000770A0002B
:100700000621B800062CB80083014C00890078004F
:100710004200AF008100E8004200A900043CB8009C
:1007200083014C0081804C00072CB80081004C00F4
:100730000000E8000100E0004220AF0001003700A7
:10074000030037000300E0004220AF00050037003F
:1007500001F0A700030037008381D2008180D2001E
:100760000000E900010178004200A9000370A60022
:100770000900370007F02F00878161000310B000E7
:10078000600149000200E00003003A000300E000BD
:1007900001003A000000E8000080FD004200A900CE
:1007A0004220A9008080D3000AF0A70001F0A00039
:1007B00002F0A1000280FD00814069000380FD007D
:1007C0000341780002007800030037000000200099
:1007D000010020000000370045012000040009004E
:1007E000CF127800CF02780000000600851F780045
:1007F000861F7800E10820000000E00012003200AF
:1008000000F0A700040037004200A9000080D200D9
:100810008100E900FAFF37000180FD004200A900D5
:100820008180D30000F0A1000080FD0081406800BD
:100830000040B20007003700014078000170A000BE
:100840000140B200030037000000EB008000EB0025
:10085000000037004F037800CF0278000000060048
:10086000851F7800C500200003000900B51F78002F
:100870008004EB00080028004300AF0083016C00F7
:100880000000E00003003A00FAFF27000A8560003C
:100890004220AE00010578008A85690001037800D6
:1008A00083037800030678004220A9004200A900D3
:1008B0000683D2000680FD00F60FB2000600E000BD
:1008C000A10032004220A9004200A9008783D20083
:1008D0000780FD00F70FB2000700E0009F00320024
:1008E0004220A9004200A9000638E1009C00320025
:1008F000A30033000900A1000910A00006845300E2
:1009000007037800F10FB2000170A000F30FB200EE
:100910000370A000870220000838E10011003300B6
:100920004220A9004200A9008180D3000080D300AA
:100930000804E900FAFF3A000D00370087022000A2
:100940000838E100090033004220A9004200A90054
:100950008381D3000281D3000804E900FAFF3A0042
:100960000F00370002007800830078004300370052
:100970000BF0A600110037000940A7008C05780095
:100980000000EA000200320081C0EA0001003700E6
:100990008100EA000940A7002B003700070037005C
:1009A0000BF0A600050037000201EA000200320049
:1009B00083C1EA00010037008301EA00F50FB200AD
:1009C0004220A9004200A9000200400083C0480064
:1009D0004200AF000930A0000900A700090037005D
:1009E0000910A700010037000B0037000BF0A7002B
:1009F000150037000930A700290037000960A00062
:100A00001E0037000BF0A7000F0037000930A700C9
:100A100023003700190037000920A1000BF0A700C0
:100A2000040037008A0578000930A7001C00370051
:100A3000360037000940A00001C8B2000170A700CD
:100A4000CDFF37008A057800F10FB20081037000F6
:100A50000A0032000170A700080037004220A900F8
:100A60004200A9000080D2008180D2000603E90084
:100A70004220AF0031003700F6FF37000900A70021
:100A80008A0578000910A7008C0578000950A60097
:100A90001A0037000AF0A7000080A0001B003700F2
:100AA0004200A80081C0D3000080D3004200AF0004
:100AB0000950A0000603E800200032000950A600FB
:100AC000080037000000E80006003A008140E80016
:100AD00004003A0081C0D3000080D3000603E80080
:100AE000160032000900A7008A0578000910A70047
:100AF0008C0578004220AF00100037000960A70085
:100B00008A0578000970A7008C0578000101700043
:100B1000230032000170A1000680FD004220A900E0
:100B20004200A9000683D30081006B0001F0A00001
:100B30000BF0A60001F0A100190037000000200012
:100B400001002000160037000AF0A70083016C00A6
:100B50000200780083007800110037001000370091
:100B6000F30FB2000370A000F10FB2000170A000FB
:100B70000BF0A7000370A1000920A00088FF370038
:100B800007045300F10FB2000170A000F30FB20090
:100B90000370A0000910A1000900A00067FF370042
:100BA0002501200003000900CF127800CF02780051
:100BB0000000060000017800810178000140780003
:100BC0000080FD0000F0A0008180D2000180FD00C7
:100BD0008180FB00E40820008140520006003200C2
:100BE0000000E000040032004200A9000080D300B1
:100BF0008100E900FAFF3A0003F0A6000200370086
:100C00000000EA000000370000000600851F7800A1
:100C1000861F78002E08F8002803F9003428EF001A
:100C2000A44180006520E100140031003488BF0039
:100C30004100DD0084832000840240002003A900DD
:100C40002023A8002003AE00FEFF37000418800018
:100C5000840298003488BF004100DD0084832000B6
:100C60000400400000027800140078003628B40028
:100C70003428EC0010060400000000003688BF0095
:100C8000F6030200000000008002780001037800F3
:100C900005007800860078003240800043408000E4
:100CA0003203020000000000800278000103780097
:100CB0004300A900050078008600780002002000AB
:100CC00003142400300402000000000026A8B7002E
:100CD000414188002688BF0041418000DA050200BA
:100CE0000000000014E8B7003628EF003088BF008D
:100CF00091418000DA050200000000004F037800F7
:100D0000CF02780000000600851F7800861F78005B
:100D1000E10820000600A10000F0A6000300370053
:100D20000600A0000000EA00000037000000E0001C
:100D30001400320000F0A700040037004200A900B0
:100D40000080D2008100E900FAFF37000180FD0039
:100D50004200A9008180D30000F0A1000080FD00C6
:100D6000814068000040B2000600A70001F0A0002A
:100D700007003700014078000170A0000140B20078
:100D8000030037000000EB008000EB00000037009C
:100D90004F037800CF02780000000600851F78001E
:100DA000861F7800871F78000382680004F0A60081
:100DB000060037004200A9004220A90001F0A60069
:100DC000260037004200A800240037000102780006
:100DD0008002780003037800820378008180D200CB
:100DE0000180FD008381D2000380FD0081C051009D
:100DF0000500320004F0A6001800370010002000A3
:100E000042E0B60015003700844078008641780043
:100E10000170A1000370A10081C0510005003200E3
:100E200004F0A6000D0037001000200042E0B600DC
:100E30000A003700858053000500320004F0A60048
:100E4000060037001000200042E0B6000300370023
:100E50004200A9000100370000003700CF037800EE
:100E60004F037800CF027800000006000FF823003F
:100E7000F0FF230020A0B7000000000081E0A800E0
:100E800074012000343A880034002000243A88009D
:100E90000E00FC003010200031742000820720007A
:100EA000A3092000824878008348780043E7B70010
:100EB0004800DE0021742000620420007305200039
:100EC0008248780083487800804878000068EF0006
:100ED00061E2A900E502A900E4E2A800E522A80079
:100EE000E4C2A80060C2A9006322A9006822EF0042
:100EF000740921001413880061E2A800E522A9000A
:100F0000E922A8000228EF0054E2230024408800D0
:100F1000D0CC2C00C1E4230012408000234080008C
:100F2000320302000000000006A8B700414088001C
:100F30000168EF000A68EF0020C0B3000EE8B700B8
:100F40000F68EF0070C0B30010E8B7001168EF0041
:100F50001A28EF0004F02300E44088001E28EF0068
:100F60002028EF002CA3EF002AA3EF00E522A80021
:100F7000E4FF2F00641988002AA3EF002223EF006A
:100F800004F0290024198800044E28000419880060
:100F90001021EF00440620006408880004032800A4
:100FA0008408880064002000540C88008621EF002B
:100FB0009820A80081E0A9004220EF0081E0A8006D
:100FC0002E28EF00060602000000000011C8BF0036
:100FD0000000FB00840602000000000022A8B70009
:100FE000214188004300A8002288BF0021418000E1
:100FF00032418000434180003004020000000000C4
:101000002AA8B700614188002A88BF00614180009A
:101010000200200003002000CE06020000000000B5
:10102000020039002A28EF002C28EF001A88BF00A0
:10103000E1408000524180006341800032030200A1
:10104000000000001EA8B700014188001E88BF00F4
:1010500001418000DA0502000000000018A8B70076
:101060001808F8008601F900E007040000000000FD
:041070000040FE003E
:0200000401F009
:10000000CF0000FFCF0000FF070000FF800000FFCF
:10001000420000FF5F0000FFE70000FFC30000FF99
:00000001FF
;DSPIC33FJ256GP510
;CRC=2B6F  CREATED="09-Feb-18 11:13"
