:0800000084040400000000006C
:0400AC002C02000022
:10040000851F7800830020006810E100070032009B
:10041000930020007010E10004003200A3002000CF
:100420007810E10001003200B30020006002AE004D
:10043000FEFF370068C2BF008051780060C2A9008B
:100440008240B100F9FF3E0004007800850078008A
:10045000CF027800000006004200F8003600F800E5
:100460003200F800801F7800200020000C000900F6
:10047000B01F78008200200000020200000000008F
:100480000BE8B7000A68EC000AC8BF000000FB00D8
:100490001080B200070032003080B200210032002C
:1004A0001080B200450032007080B200740032004B
:1004B000A700370010C8BF0000E8B70000C8BF00A1
:1004C00068E2B70010C0B30000E8B7000DC8BF0075
:1004D0000000FB006100E10007003A000068EF0047
:1004E00000C8BF0068E2B70010C0B30000E8B70062
:1004F0008E020400000000000DC8BF000000FB00D9
:100500006200E10005003A000068EF0000C8BF008B
:1005100068E2B70010C0B30000E8B700AE03040003
:10052000000000000BC8BF000DE8B7000DC8BF00F9
:100530000000FB006100E10008003A0015C8BF00A0
:1005400000E8B70000C8BF0068E2B70010C0B30001
:1005500000E8B700DA020400000000000DC8BF0088
:100560000000FB006200E10008003A0030C0B30068
:1005700000E8B70000C8BF0068E2B70010C0B300D1
:1005800000E8B700DA020400000000000DC8BF0058
:100590000000FB006300E10006003A000EC8BF0047
:1005A00000E8B70000C8BF0068E2B70010C0B300A1
:1005B00000E8B700AE030400000000000DC8BF0053
:1005C0000000FB006100E10007003A000068EF0056
:1005D00000C8BF0068E2B70010C0B30000E8B70071
:1005E0003C030400000000000DC8BF000000FB0039
:1005F0006200E10009003A000BC8BF0011E8B70033
:100600000068EF0000C8BF0068E2B70010C0B30088
:1006100000E8B7003C030400000000000DC8BF0064
:100620000000FB006300E10007003A000068EF00F3
:1006300000C8BF0068E2B70010C0B30000E8B70010
:100640003C030400000000000DC8BF000000FB00D8
:100650006700E10008003A000BC8BF0012E8B700CD
:1006600016C8BF0000E8B70000C8BF0068E2B700C6
:1006700010C0B30000E8B700AE03040000000000A3
:100680000A68EF000DC8BF000000FB006100E10038
:1006900007003A000068EF0000C8BF0068E2B7003A
:1006A00010C0B30000E8B700A4030400000000007D
:1006B0000DC8BF000000FB006200E1000A003A0024
:1006C0000BC8BF0013E8B70017C8BF0000E8B700A9
:1006D00000C8BF0068E2B70010C0B30000E8B70070
:1006E000A4030400000000000DC8BF000000FB00D0
:1006F0006300E10008003A0015C8BF0000E8B70039
:1007000000C8BF0068E2B70010C0B30000E8B7003F
:10071000A4030400000000000DC8BF000000FB009F
:100720006700E10008003A000BC8BF0014E8B700FA
:1007300018C8BF0000E8B70000C8BF0068E2B700F3
:1007400010C0B30000E8B700AE03040000000000D2
:100750000A68EF00AE030400000000008820A90032
:10076000A00120000C0009004F1078004F00780015
:100770003200F9003600F9004200F900004006009E
:10078000851F7800C500200004000900B51F78000F
:100790000002780081027800830378000203780069
:1007A0004200A9004220A9008180D2000180FD0002
:1007B000F10FB2000100E0004B0032004200A9003E
:1007C0004220A9008381D2000380FD00F30FB20014
:1007D0000300E000440032000080FB0001C0410043
:1007E00004003100F007B1003F0032003E00390044
:1007F000020037001048B0003B00310007856A0056
:100800004200A9004220A900F50FB2000570A00027
:100810004200A900F70FB2000770A0000621B8003F
:10082000062CB80083014C00890078004200AF001C
:100830008100E8004200A900043CB80083014C009C
:1008400081804C00072CB80081004C000000E800BB
:100850000100E0004220AF00010037000300370034
:100860000300E0004220AF000500370001F0A700C0
:10087000030037008381D2008180D2000000E900AC
:10088000010178004200A9000370A60009003700AA
:1008900007F02F00878161000310B000600149005C
:1008A0000200E00003003A000300E00001003A000B
:1008B0000000E8000080FD004200A9004220A900DD
:1008C0008080D3000AF0A70001F0A00002F0A10090
:1008D0000280FD00814069000380FD000341780033
:1008E0000200780003003700000020000100200013
:1008F000000037004501200004000900CF127800F5
:10090000CF027800000006000FF82300F0FF23005C
:1009100020A0B7000000000081E0A8000068EF0000
:1009200061E2A900E502A900E4E2A800E522A8002E
:10093000E4C2A80060C2A9006322A9006822EF00F7
:10094000F40921001413880061E2A800E522A9003F
:10095000E922A8000228EF0054E223002440880086
:10096000D0CC2C00C1D42300124080002340800052
:10097000C00302000000000006A8B7004140880044
:100980000168EF000A68EF0020C0B3000EE8B7006E
:100990000F68EF0070C0B30010E8B7001168EF00F7
:1009A0001268EF001368EF001468EF00F0C0B300A6
:1009B00015E8B70090C1B30016E8B70030C2B30025
:1009C00017E8B700D0C2B30018E8B7002CA3EF00B7
:1009D0002AA3EF00E522A800A4FF2F0064198800D5
:1009E0002AA3EF002223EF0004F029002419880035
:1009F000044E2800041988001021EF007402200022
:100A0000640888000400280084088800640020002E
:100A1000540C88008621EF0064002000840C8800BC
:100A20008C21EF009820A80081E0A9004220EF006F
:100A300081E0A8002823EF002E28EF002E08F80000
:100A40008601F9003028EF003008F8008C01F90029
:100A50002003A9002023A8002003AE00FEFF3700DA
:100A600000C3BF0015E8B7001C050400000000002B
:040A70000040FE0044
:0200000401F009
:10000000CF0000FFCF0000FF070000FF820000FFCD
:10001000C20000FF5F0000FFE70000FFC30000FF19
:00000001FF
;DSPIC33FJ256GP510
;CRC=1ED7  CREATED="05-Feb-18 15:10"
